:100000000C9434000C9451000C9451000C94510049
:100010000C9451000C9451000C9451000C9451001C
:100020000C9451000C9451000C9451000C94C60196
:100030000C9451000C9451000C9451000C945100FC
:100040000C9451000C9451000C9451000C945100EC
:100050000C9451000C9451000C9451000C945100DC
:100060000C9451000C94510011241FBECFEFD8E026
:10007000DEBFCDBF11E0A0E0B1E0E6E4F4E002C0F5
:1000800005900D92A231B107D9F721E0A2E1B1E0CC
:1000900001C01D92A132B207E1F70E94A8010C94A1
:1000A00021020C940000882311F02D9A01C02D9894
:1000B000459A45980895CF93C0E180E00E9453008F
:1000C000C150D9F7CF9108953F924F925F926F92AE
:1000D0007F928F929F92AF92BF92CF92DF92EF92D8
:1000E000FF920F931F93CF93DF93CDB7DEB72E9779
:1000F0000FB6F894DEBF0FBECDBF80E090E0FC01EC
:10010000EE0FFF1FED5EFE4F1182108201968730C9
:100110009105A9F7FE0131968EE0DF011D928A95C7
:10012000E9F78091120190E066E070E00E94F90129
:10013000862E4DEF460F0AF440E0E0E0F1E001903A
:100140000020E9F73197E050F140062E000C770BC4
:10015000CF0101978617970718F488248A948E0E8A
:10016000B42E50E0082C000C9908841695060CF06B
:100170006BC08CC09B01280F391F2E5F3E4FF901C9
:10018000208130E0F801219331938F01019687306F
:10019000910581F72AEF24038001259F100D11247A
:1001A0007A01EE0CFF1CE40EF51EEE0CFF1C2A2D4E
:1001B000372D8091120190E00597800F911F18163E
:1001C0001906D4F480911201F901EE0FFF1FED5EC4
:1001D000FE4F4081518190E00597800F911F6D91F6
:1001E0007C91119702C0660F771F8A95E2F7642B06
:1001F000752B718360831AC040911201F901EE0FD3
:10020000FF1FED5EFE4F80819181B601641B710975
:100210006E0D7F1D4D915C91119702C056954795CB
:100220006A95E2F7482B592B518340832F5F3F4F4C
:1002300012962730310509F0BCCFB3944B2D50E016
:10024000841695066CF422C0CE0101962C01682E0E
:10025000352CA12C712C0F2EF5E0CF2ED12CF02DAA
:10026000FA01E050FF4F208130E020533109D201E4
:10027000062D132D8A2D972DB901660F771F660F56
:10028000771F660F771F621B730B74CF2E960FB606
:10029000F894DEBF0FBECDBFDF91CF911F910F91BC
:1002A000FF90EF90DF90CF90BF90AF909F908F9096
:1002B0007F906F905F904F903F90089590911001C4
:1002C00025B1922395B92C9A2C98E82FF0E0E75F9E
:1002D000FE4F908185B1892B85B90895EFE6F0E056
:1002E000808182608083E1E8F0E080818D6080839E
:1002F00086E495E09093890080938800789408952F
:10030000EF92FF920F931F93CF93DF937C01C0E096
:10031000D0E001E010E098010C2E02C0220F331F44
:100320000A94E2F72E213F21232B21F081E00E9445
:10033000530003C080E00E9453002196C031D105D4
:1003400051F7DF91CF911F910F91FF90EF9008959A
:100350008FEF84B93D9A0E946E010E945B0000E01D
:1003600010E00E946400C02FD12FFE01EE0FFF1F8E
:10037000ED5EFE4F808191810E9480018C2F0E9452
:100380005E012196C730D10581F7EBCF1F920F9206
:100390000FB60F9211242F933F938F939F93EF9358
:1003A000FF93809112018F5F80931201809112015F
:1003B000E0E0F1E001900020E9F73197E050F140F2
:1003C00090E09F01220F331F220F331FE20FF31F14
:1003D0007096E817F90710F410921201FF91EF914F
:1003E0009F918F913F912F910F900FBE0F901F9073
:1003F000189597FB072E16F4009407D077FD09D0C7
:100400000E940D0207FC05D03EF4909581959F4F08
:100410000895709561957F4F0895AA1BBB1B51E10C
:1004200007C0AA1FBB1FA617B70710F0A61BB70B64
:10043000881F991F5A95A9F780959095BC01CD0109
:060440000895F894FFCFBF
:1004460030000E11131519110E07060504030201DB
:02045600F000B4
:00000001FF
