S01700004763634170706C69636174696F6E322E737265635A
S11300000C9481010C949E010C949E010C949E010D
S11300100C949E010C949E010C949E010C949E01E0
S11300200C949E010C949E010C949E010C94680304
S11300300C949E010C949E010C949E010C949E01C0
S11300400C949E010C949E010C949E010C949E01B0
S11300500C949E010C949E010C949E010C949E01A0
S11300600C949E010C949E0100000000000000040A
S11300700404040400040A0A00000000000A0A1F21
S11300800A1F0A0A040F140E051E04181902040894
S113009013030814140815120D04040000000000D2
S11300A002040404040402080404040404080015FB
S11300B00E1F0E15000004041F04040000000000BD
S11300C00404100000000E00000000000000000006
S11300D004000102040810000E11131519110E0476
S11300E00C140404041F0E11010608101F0E110144
S11300F00601110E02060A121F02021F101E010140
S1130100110E0E11101E11110E1F0102040404041D
S11301100E11110E11110E0E11110F01110E00000E
S1130120040004000000000400040800010204109C
S113013008040200000E000E00000804020102047C
S1130140080E1101020400040E11171516100F0EEB
S11301501111111F11111E11111E11111E0E11105A
S11301601010110E1E11111111111E1F10101E104E
S1130170101F1F10101E1010100E11101715110E45
S11301801111111F111111040404040404040202C6
S1130190020202120C1111121C1211111010101073
S11301A010101F111B15151111111111191513110F
S11301B0110E11111111110E1E11111E1010100E1D
S11301C011111115130F1E11111E1111110F101001
S11301D00E01011E1F040404040404111111111161
S11301E0110E11111111110A0411111115151B1100
S11301F011110A040A111111110A040404041F0143
S1130200020408101F060404040404060010080471
S11302100201000C04040404040C040A110000008C
S1130220000000000000001F08080000000000009B
S1130230000E010F110F1010101E11111E00000EE0
S11302401110110E0101010F11110F00000E111FE9
S1130250100F0609081C08080800000E110F010EF3
S11302601010101E11111104000C0404040E0200DD
S1130270060202120C101011121C12110C040404B8
S113028004040E00001E1515151500001E11111191
S11302901100000E1111110E00000E090E080800C5
S11302A00007090701010000171810101000000FC3
S11302B0100E011E04040E040404030000111111A5
S11302C0130D00001111110A0400001111151F155E
S11302D00000110A040A11000011110F011E000090
S11302E01F0204081F020404080404020404040492
S11302F004040408040402040408000008150200AD
S1130300000011241FBECFEFD8E0DEBFCDBF11E047
S1130310A0E0B1E0EAE8F7E002C005900D92A03257
S1130320B107D9F721E0A0E2B1E001C01D92AD33DD
S1130330B207E1F70E9441030C94C3030C9400003C
S1130340882311F02D9A01C02D98459A4598089557
S1130350CF93C0E280E00E94A001C150D9F7CF91B1
S113036008952F923F924F925F926F927F928F9255
S11303709F92AF92BF92CF92DF92EF92FF920F9330
S11303801F93CF93DF93CDB7DEB768970FB6F8947A
S1130390DEBF0FBECDBF80E090E0FC01EE0FFF1F7B
S11303A0EF5DFE4F11821082019687309105A9F707
S11303B080E090E0FC01EE0FFF1FE15DFE4F118233
S11303C01082019687309105A9F7FE0131968EE0DF
S11303D0DF011D928A95E9F71D8A1C8A1F8A1E8AED
S11303E01E01BFE02B0E311CF88BEF870F2EF5E0BA
S11303F04F2E512CF02D6F8438893B8B688E809161
S11304002001EE89FF89CC88DD88A601480F511DA3
S1130410CA0166E070E00E949B032DEF260F662E52
S113042066230CF4612C22230CF420E0A0E0B1E05C
S11304300D900020E9F71197CD0180509140DC0127
S11304401197462D062C000C550BA417B50718F46C
S113045066246A94680E722E30E0862D660C990B21
S11304609A8B898B821793070CF498C08C889D888B
S11304709194819491085F01AA0CBB1CAA0CBB1C2B
S1130480AA0CBB1CAE1ABF0A688C6FC0849190E0A2
S11304908D939D933196A215B305C1F7DA014AEF06
S11304A042038001439F100D11247901EE0CFF1CBF
S11304B0E20EF31EEE0CFF1C60E070E08091200160
S11304C090E005978C0D9D1D800F911F181619063D
S11304D0F4F480912001F501E60FF71FEE0FFF1FE2
S11304E0EF5DFE4F2081318190E005978C0D9D1DBD
S11304F0800F911F4D915C91119702C0440F551FBD
S11305008A95E2F7422B532B518340831FC080917D
S11305102001F501E60FF71FEE0FFF1FEF5DFE4F01
S113052020813181A201481B5109CA01880D991DFE
S11305308E0D9F1D4D915C91119702C05695479564
S11305408A95E2F7422B532B518340836F5F7F4F91
S113055012966730710509F0B1CF7394272D30E0FE
S113056089899A8982179307CCF0F901E050FF4FEB
S1130570808190E08097FC01EE0FFF1FEE0FFF1FBC
S1130580EE0FFF1FE81BF90BE859FF4FDE01119630
S1130590462D5B89CD01DA01AC0178CF2E893F89E4
S11305A02F5F3F4F3F8B2E8B4C895D894051510902
S11305B05D8B4C8B403E5F4F09F021CF68960FB6A0
S11305C0F894DEBF0FBECDBFDF91CF911F910F9185
S11305D0FF90EF90DF90CF90BF90AF909F908F905F
S11305E07F906F905F904F903F902F9008959091DF
S11305F01F0125B1922395B92C9A2C98E82FF0E08D
S1130600E85EFE4F908185B1892B85B90895EFE6A8
S1130610F0E0808182608083E1E8F0E080818D6099
S1130620808386E495E09093890080938800789491
S11306300895EF92FF920F931F93CF93DF937C0162
S1130640C0E0D0E001E010E098010C2E02C0220FBF
S1130650331F0A94E2F72E213F21232B21F081E05E
S11306600E94A00103C080E00E94A0012196C03135
S1130670D10551F7DF91CF911F910F91FF90EF902A
S113068008958FEF84B93D9A0E9407030E94A80140
S113069000E010E00E94B101C02FD12FFE01EE0F47
S11306A0FF1FEF5DFE4F808191810E941903FE01BF
S11306B0EE0FFF1FE15DFE4F808191810E941903BF
S11306C08C2F0E94F7022196C730D10539F7E2CF6B
S11306D01F920F920FB60F9211242F933F938F9373
S11306E09F93EF93FF93809120018F5F809320016C
S11306F080912001E0E0F1E001900020E9F73197DA
S1130700E050F14090E09F01220F331FE20FF31FEE
S1130710EE0FFF1FB096E817F90710F410922001AE
S1130720FF91EF919F918F913F912F910F900FBE69
S11307300F901F90189597FB072E16F4009407D07E
S113074077FD09D00E94AF0307FC05D03EF49095D5
S113075081959F4F0895709561957F4F0895AA1BC9
S1130760BB1B51E107C0AA1FBB1FA617B70710F098
S1130770A61BB70B881F991F5A95A9F780959095CA
S10D0780BC01CD010895F894FFCFE9
S113078A53746566616E204B6F7A6F6D6F72612068
S113079A6275727A756C6A0007060504030201F031
S9030000FC
