:100000000C9434000C9449000C9449000C94490061
:100010000C9449000C9449000C9449000C9449003C
:100020000C9449000C9449000C9449000C9449002C
:100030000C9449000C9449000C9449000C9449001C
:100040000C9449000C9449000C9449000C9449000C
:100050000C9449000C9449000C9449000C944900FC
:100060000C9449000C94490011241FBECFEFD8E036
:10007000DEBFCDBF11E0A0E0B1E0E6E5F1E002C0F7
:1000800005900D92AE31B107D9F70E948B000C9408
:10009000A9000C940000882311F02D9A01C02D981E
:1000A000459A45980895CF93C0E180E00E944B00A7
:1000B000C150D9F7CF91089595B1907F95B995B179
:1000C000E82FF0E0EB5EFE4F8081892B85B9089523
:1000D0000F931F93CF93DF93C0E0D0E0082F10E081
:1000E00098010C2E02C0359527950A94E2F720FF5F
:1000F00004C081E00E944B0003C080E00E944B00DE
:100100002196C031D10561F72C9A2C98DF91CF91BF
:100110001F910F9108958FEF84B93D9A0E9453006B
:100120000F2EFEE0EF2EF1E0FF2EF02D0F2EF5E169
:10013000CF2EF1E0DF2EF02DE7011C2F1E19899143
:100140000E946800812F0E945C00CC15DD05A9F794
:06015000F3CFF894FFCF8D
:100156000F09090909090F010101010101010F0137
:0E016600010F08080F07060504030201F00050
:00000001FF
