:100000000C9434000C9451000C9451000C94510049
:100010000C9451000C9451000C9451000C9451001C
:100020000C9451000C9451000C9451000C94BC01A0
:100030000C9451000C9451000C9451000C945100FC
:100040000C9451000C9451000C9451000C945100EC
:100050000C9451000C9451000C9451000C945100DC
:100060000C9451000C94510011241FBECFEFD8E026
:10007000DEBFCDBF11E0A0E0B1E0E2EEF3E002C0F0
:1000800005900D92A232B107D9F721E0A2E2B1E0CA
:1000900001C01D92A133B207E1F70E949E010C94AA
:1000A000EF010C940000882311F02D9A01C02D98C7
:1000B000459A45980895CF93C0E180E00E9453008F
:1000C000C150D9F7CF9108953F924F925F926F92AE
:1000D0007F928F929F92AF92BF92CF92DF92EF92D8
:1000E000FF920F931F93CF93DF93CDB7DEB72E9779
:1000F0000FB6F894DEBF0FBECDBF80E090E0FC01EC
:10010000EE0FFF1FEE5DFE4F1182108201968730C9
:100110009105A9F7FE0131968EE0DF011D928A95C7
:10012000E9F7B12C0F2EF0E08F2EF1E09F2EF02D8D
:100130002F016E2E352CA12C712C6894CC24C2F882
:10014000D12C8DC0809130016B2D70E02BEF2603F8
:100150008001279F100D1124D801A80FB11DCD01DA
:10016000059740970CF07AC080913001F801E80FB4
:10017000F11DFF230CF480C0FB01E050FF4F2081F4
:1001800030E020533109D201E62CF32C8A2D972D33
:10019000A901440F551F440F551F440F551F421B03
:1001A000530B9A01280F391F2C5F3E4FF901208114
:1001B00030E0F701219331937F010196873091055B
:1001C00081F77B01EE0CFF1CEE0CFF1CE60EF71E08
:1001D0002A2D372D8091300190E00497800F911FD8
:1001E00018161906D4F480913001F901EE0FFF1FA3
:1001F000EE5DFE4F4081518190E00497800F911F8A
:100200006D917C91119702C0660F771F8A95E2F776
:10021000642B752B718360831AC040913001F90102
:10022000EE0FFF1FEE5DFE4F80819181B601641BD2
:1002300071096E0D7F1D4D915C91119702C056950D
:1002400047956A95E2F7482B592B518340832F5FDE
:100250003F4F12962730310509F0BCCFB394F4011B
:1002600001900020E9F73197E050F1408B2D90E0AC
:100270008E179F0708F466CF2E960FB6F894DEBF50
:100280000FBECDBFDF91CF911F910F91FF90EF90E7
:10029000DF90CF90BF90AF909F908F907F906F90A6
:1002A0005F904F903F9008959091200125B1922347
:1002B00095B9E82FF0E0E75EFE4F908185B1892B7C
:1002C00085B90895EFE6F0E0808182608083E1E8FF
:1002D000F0E080818D60808388E195E190938900D2
:1002E0008093880078940895EF92FF920F931F9364
:1002F000CF93DF937C01C0E0D0E001E010E09801F3
:100300000C2E02C0220F331F0A94E2F72E213F2148
:10031000232B21F081E00E94530003C080E00E9463
:1003200053002196C031D10551F72C9A2C98DF91BA
:10033000CF911F910F91FF90EF9008958FEF84B9A7
:100340003D9A0E9462010E945B0000E010E0C02F15
:10035000D12F0E946400FE01EE0FFF1FEE5DFE4FE5
:10036000808191810E9474018C2F0E9454012196FA
:10037000C730D10571F7EBCF1F920F920FB60F92D6
:1003800011242F933F938F939F93EF93FF9380912B
:1003900030018F5F8093300180913001E0E0F1E027
:1003A00001900020E9F73197E050F14090E09F0183
:1003B000220F331F220F331FE20FF31F7096E8172F
:1003C000F90710F410923001FF91EF919F918F91F6
:1003D0003F912F910F900FBE0F901F901895F8949A
:0203E000FFCF4D
:1003E200303132000F09090909090F01030509011A
:1003F20001010F01010F08080F070605040302019E
:02040200F00008
:00000001FF
