:100000000C9434000C9451000C9451000C94510049
:100010000C9451000C9451000C9451000C9451001C
:100020000C9451000C9451000C9451000C9451000C
:100030000C9451000C9451000C9451000C945100FC
:100040000C9451000C9451000C9451000C945100EC
:100050000C9451000C9451000C9451000C945100DC
:100060000C9451000C94510011241FBECFEFD8E026
:10007000DEBFCDBF11E0A0E0B1E0E6E6F2E002C0F5
:1000800005900D92A032B107D9F721E0A0E2B1E0CE
:1000900001C01D92AE32B207E1F70E9414010C9428
:1000A00031010C940000882311F02D9A01C02D9885
:1000B000459A45980895CF93C0E180E00E9453008F
:1000C000C150D9F7CF9108958F929F92AF92BF926E
:1000D000CF92DF92EF92FF920F931F93CF93DF9314
:1000E000CDB7DEB727970FB6F894DEBF0FBECDBFF2
:1000F000FE01319687E0DF011D928A95E9F7209194
:10010000020130E024503109B12C0F2EF0E0EF2E27
:10011000F1E0FF2EF02D8F01BE01685F7F4FAE2E04
:10012000912E0F2EF0E2CF2EF1E0DF2EF02D4EE2D9
:1001300051E017C08D908192E617F707D9F7D601E5
:10014000FC018190CF01E82DF0E0022E02C0EE0FFD
:10015000FF1F0A94E2F7ED93FD93A417B50781F70B
:10016000B394F70101900020E9F73197CF01805057
:100170009140EB2DF0E0E817F907A0F4E050FF4FB5
:10018000808190E0C097DC01AA0FBB1FAA0FBB1FA4
:10019000AA0FBB1FA81BB90BAD5FBE4FC801EA2D4C
:1001A000F92DC8CF27960FB6F894DEBF0FBECDBF8E
:1001B000DF91CF911F910F91FF90EF90DF90CF9043
:1001C000BF90AF909F908F90089595B1907F95B913
:1001D00095B1E82FF0E0E85EFE4F8081892B85B96C
:1001E00008950F931F93CF93DF93C0E0D0E0082FC3
:1001F00010E098010C2E02C0359527950A94E2F77D
:1002000020FF04C081E00E94530003C080E00E94F0
:1002100053002196C031D10561F72C9A2C98DF91BB
:10022000CF911F910F9108958FEF84B93D9A0E944D
:100230005B000F2EF0E2EF2EF1E0FF2EF02DD0E06C
:100240008701CD2F0E946400F80180810E5F1F4F4F
:100250000E94F1008C2F0E94E500CF5FC73091F71C
:06026000EFCFF894FFCF80
:100266003000080F09090909090F010101010101FF
:10027600010F01010F08080F07060504030201F02C
:00000001FF
