S01700004763634170706C69636174696F6E322E737265635A
S11300000C9434000C9451000C9451000C94510045
S11300100C9451000C9451000C9451000C94510018
S11300200C9451000C9451000C9451000C94270230
S11300300C9451000C9451000C9451000C945100F8
S11300400C9451000C9451000C9451000C945100E8
S11300500C9451000C9451000C9451000C945100D8
S11300600C9451000C94510011241FBECFEFD8E022
S1130070DEBFCDBF11E0A0E0B1E0E8E0F5E002C0F2
S113008005900D92A632B107D9F721E0A6E2B1E0BE
S113009001C01D92A135B207E1F70E94F7010C944B
S11300A082020C940000882311F02D9A01C02D982F
S11300B0459A45980895CF93C0E380E00E94530089
S11300C0C150D9F7CF9108952F923F924F925F92EA
S11300D06F927F928F929F92AF92BF92CF92DF9254
S11300E0EF92FF920F931F93CF93DF93CDB7DEB7B9
S11300F067970FB6F894DEBF0FBECDBF40E050E067
S113010070E060E012C0F901E80FF91FEE0FFF1F65
S1130110E95DFE4F1182108201968730910599F7AF
S11301204F5F5F4F4330510561F0872F962F9A013F
S1130130220F331F220F331F220F331F241B350BB3
S1130140E2CFFE0131968EE0DF011D928A95E9F738
S11301501C8A1B8A1E8A1D8AF88BEF8768942224C6
S113016022F8312C6F84698A78887A8A80912601F2
S11301702D893E890B891C897801E80EF11CC70181
S113018065E070E00E945A02462E4DEF460F0AF4D5
S113019040E0E0E0F1E001900020E9F73197CF0181
S11301A080509140062E000C770BFC013197E61726
S11301B0F70718F444244A94480E742E50E0042C93
S11301C0000C5508441655060CF49EC08B889C8878
S11301D09194819491085901AA0CBB1CAA0CBB1CD4
S11301E0AA0CBB1CA21AB30A77C09B01280F391FA3
S11301F0D901A75FBE4F2C9130E021933193019632
S11302008730910591F7D7012BEF2403B001259F87
S1130210700D11246A01CC0CDD1CCC0CDD1CC40E49
S1130220D51E40E050E07F8A8091260190E004973B
S1130230800F911F860F971F18161906FCF48091E2
S11302402601F501E40FF51FEE0FFF1FE95DFE4FD8
S11302502081318190E00497800F911F860F971FB2
S1130260ED90FC901197370102C0660C771C8A95BB
S1130270E2F7262937293183208320C08091260183
S1130280F501E40FF51FEE0FFF1FE95DFE4F20811E
S113029031817101E81AF108C701880D991D8C0D8F
S11302A09D1DED90FC901197370102C076946794E0
S11302B08A95E2F726293729318320834F5F5F4FE0
S11302C012964730510509F0AFCF7F887394472DBC
S11302D050E044165506C4F0FA01E050FF4F208167
S11302E030E020533109DE011196E989FA8980E072
S11302F090E0B901660F771F660F771F660F771FAF
S1130300621B730B7D0171CF4D895E894F5F5F4F17
S11303105E8B4D8B4B895C89405151095C8B4B8BB7
S1130320403D5F4F09F022CF67960FB6F894DEBFC9
S11303300FBECDBFDF91CF911F910F91FF90EF9032
S1130340DF90CF90BF90AF909F908F907F906F90F1
S11303505F904F903F902F9008959091250125B183
S1130360922395B92C9A2C98E82FF0E0E25EFE4F88
S1130370908185B1892B85B90895EFE6F0E08081FD
S113038082608083E1E8F0E080818D60808386E490
S113039095E0909389008093880078940895EF9273
S11303A0FF920F931F93CF93DF937C01C0E0D0E0C3
S11303B001E010E098010C2E02C0220F331F0A94B2
S11303C0E2F72E213F21232B21F081E00E945300EC
S11303D003C080E00E9453002196C031D10551F73B
S11303E0DF91CF911F910F91FF90EF9008958FEFC0
S11303F084B93D9A0E94BD010E945B0000E010E0B8
S11304000E946400C02FD12FFE01EE0FFF1FE95D93
S1130410FE4F808191810E94CF01FE01EE0FFF1FEC
S1130420EB5CFE4F808191810E94CF01FE01EE0FB3
S1130430FF1FED5BFE4F808191810E94CF018C2FC5
S11304400E94AD012196C730D105F1F6D9CF1F9294
S11304500F920FB60F9211242F933F938F939F9374
S1130460EF93FF93809126018F5F80932601809103
S11304702601E0E0F1E001900020E9F73197E05037
S1130480F14090E09F01220F331F220F331FE20F30
S1130490F31FF096E817F90710F410922601FF9164
S11304A0EF919F918F913F912F910F900FBE0F90DD
S11304B01F90189597FB072E16F4009407D077FD2C
S11304C009D00E946E0207FC05D03EF490958195F8
S11304D09F4F0895709561957F4F0895AA1BBB1B8C
S11304E051E107C0AA1FBB1FA617B70710F0A61B30
S11304F0B70B881F991F5A95A9F780959095BC0151
S10B0500CD010895F894FFCF2A
S11305083031323231323031000F09090909090F0B
S1130518010305090101010F01010F08080F07066E
S10905280504030201F0CA
S9030000FC
